{
  "contractName": "JobPortal",
  "abi": [
    {
      "inputs": [
        {
          "internalType": "uint256",
          "name": "",
          "type": "uint256"
        }
      ],
      "name": "um",
      "outputs": [
        {
          "internalType": "uint256",
          "name": "id",
          "type": "uint256"
        },
        {
          "internalType": "string",
          "name": "fname",
          "type": "string"
        },
        {
          "internalType": "string",
          "name": "lname",
          "type": "string"
        },
        {
          "internalType": "uint256",
          "name": "number",
          "type": "uint256"
        },
        {
          "internalType": "string",
          "name": "uaddress",
          "type": "string"
        },
        {
          "internalType": "uint256",
          "name": "anumber",
          "type": "uint256"
        },
        {
          "internalType": "string",
          "name": "pass",
          "type": "string"
        },
        {
          "internalType": "string",
          "name": "usertype",
          "type": "string"
        }
      ],
      "stateMutability": "view",
      "type": "function",
      "constant": true
    },
    {
      "inputs": [
        {
          "internalType": "uint256",
          "name": "_id",
          "type": "uint256"
        },
        {
          "internalType": "string",
          "name": "_pass",
          "type": "string"
        },
        {
          "internalType": "string",
          "name": "_fname",
          "type": "string"
        },
        {
          "internalType": "string",
          "name": "_lname",
          "type": "string"
        },
        {
          "internalType": "string",
          "name": "_uaddress",
          "type": "string"
        },
        {
          "internalType": "uint256",
          "name": "_number",
          "type": "uint256"
        },
        {
          "internalType": "uint256",
          "name": "_anumber",
          "type": "uint256"
        },
        {
          "internalType": "string",
          "name": "_usertype",
          "type": "string"
        }
      ],
      "name": "newUser",
      "outputs": [],
      "stateMutability": "nonpayable",
      "type": "function"
    },
    {
      "inputs": [
        {
          "internalType": "uint256",
          "name": "_jobid",
          "type": "uint256"
        },
        {
          "internalType": "uint256",
          "name": "_userid",
          "type": "uint256"
        },
        {
          "internalType": "string",
          "name": "_jname",
          "type": "string"
        }
      ],
      "name": "jobApplied",
      "outputs": [],
      "stateMutability": "nonpayable",
      "type": "function"
    },
    {
      "inputs": [
        {
          "internalType": "string",
          "name": "_jobname",
          "type": "string"
        },
        {
          "internalType": "string",
          "name": "_jobloc",
          "type": "string"
        },
        {
          "internalType": "uint256",
          "name": "_jobduration",
          "type": "uint256"
        },
        {
          "internalType": "uint256",
          "name": "_jobwage",
          "type": "uint256"
        },
        {
          "internalType": "string",
          "name": "_jobcontactpersion",
          "type": "string"
        },
        {
          "internalType": "uint256",
          "name": "_jobcontact",
          "type": "uint256"
        }
      ],
      "name": "newJobpool",
      "outputs": [],
      "stateMutability": "nonpayable",
      "type": "function"
    },
    {
      "inputs": [
        {
          "internalType": "uint256",
          "name": "_jobid",
          "type": "uint256"
        },
        {
          "internalType": "uint256",
          "name": "_userid",
          "type": "uint256"
        },
        {
          "internalType": "string",
          "name": "_jname",
          "type": "string"
        },
        {
          "internalType": "uint256",
          "name": "_cuserid",
          "type": "uint256"
        },
        {
          "internalType": "uint256",
          "name": "_rateing",
          "type": "uint256"
        },
        {
          "internalType": "string",
          "name": "_comment",
          "type": "string"
        }
      ],
      "name": "newWorkmenRating",
      "outputs": [],
      "stateMutability": "nonpayable",
      "type": "function"
    },
    {
      "inputs": [],
      "name": "jobPoolCount",
      "outputs": [
        {
          "internalType": "uint256",
          "name": "",
          "type": "uint256"
        }
      ],
      "stateMutability": "view",
      "type": "function",
      "constant": true
    },
    {
      "inputs": [],
      "name": "workmenRatingCount",
      "outputs": [
        {
          "internalType": "uint256",
          "name": "",
          "type": "uint256"
        }
      ],
      "stateMutability": "view",
      "type": "function",
      "constant": true
    },
    {
      "inputs": [
        {
          "internalType": "uint256",
          "name": "id",
          "type": "uint256"
        }
      ],
      "name": "getRating",
      "outputs": [
        {
          "internalType": "uint256",
          "name": "",
          "type": "uint256"
        },
        {
          "internalType": "uint256",
          "name": "",
          "type": "uint256"
        },
        {
          "internalType": "string",
          "name": "",
          "type": "string"
        },
        {
          "internalType": "uint256",
          "name": "",
          "type": "uint256"
        },
        {
          "internalType": "uint256",
          "name": "",
          "type": "uint256"
        },
        {
          "internalType": "string",
          "name": "",
          "type": "string"
        }
      ],
      "stateMutability": "view",
      "type": "function",
      "constant": true
    },
    {
      "inputs": [
        {
          "internalType": "uint256",
          "name": "id",
          "type": "uint256"
        }
      ],
      "name": "getJobs",
      "outputs": [
        {
          "internalType": "uint256",
          "name": "",
          "type": "uint256"
        },
        {
          "internalType": "string",
          "name": "",
          "type": "string"
        },
        {
          "internalType": "string",
          "name": "",
          "type": "string"
        },
        {
          "internalType": "uint256",
          "name": "",
          "type": "uint256"
        },
        {
          "internalType": "uint256",
          "name": "",
          "type": "uint256"
        },
        {
          "internalType": "string",
          "name": "",
          "type": "string"
        },
        {
          "internalType": "uint256",
          "name": "",
          "type": "uint256"
        }
      ],
      "stateMutability": "view",
      "type": "function",
      "constant": true
    },
    {
      "inputs": [
        {
          "internalType": "uint256",
          "name": "id",
          "type": "uint256"
        }
      ],
      "name": "getUser",
      "outputs": [
        {
          "internalType": "string",
          "name": "",
          "type": "string"
        },
        {
          "internalType": "string",
          "name": "",
          "type": "string"
        },
        {
          "internalType": "uint256",
          "name": "",
          "type": "uint256"
        },
        {
          "internalType": "string",
          "name": "",
          "type": "string"
        },
        {
          "internalType": "uint256",
          "name": "",
          "type": "uint256"
        },
        {
          "internalType": "string",
          "name": "",
          "type": "string"
        }
      ],
      "stateMutability": "view",
      "type": "function",
      "constant": true
    },
    {
      "inputs": [
        {
          "internalType": "uint256",
          "name": "id",
          "type": "uint256"
        }
      ],
      "name": "getusertype",
      "outputs": [
        {
          "internalType": "string",
          "name": "",
          "type": "string"
        },
        {
          "internalType": "string",
          "name": "",
          "type": "string"
        }
      ],
      "stateMutability": "view",
      "type": "function",
      "constant": true
    },
    {
      "inputs": [
        {
          "internalType": "uint256",
          "name": "pkey",
          "type": "uint256"
        }
      ],
      "name": "getapplied",
      "outputs": [
        {
          "internalType": "uint256",
          "name": "",
          "type": "uint256"
        },
        {
          "internalType": "uint256",
          "name": "",
          "type": "uint256"
        },
        {
          "internalType": "string",
          "name": "",
          "type": "string"
        }
      ],
      "stateMutability": "view",
      "type": "function",
      "constant": true
    },
    {
      "inputs": [
        {
          "internalType": "uint256",
          "name": "_id",
          "type": "uint256"
        }
      ],
      "name": "getRatings",
      "outputs": [
        {
          "internalType": "uint256",
          "name": "",
          "type": "uint256"
        }
      ],
      "stateMutability": "view",
      "type": "function",
      "constant": true
    }
  ],
  "bytecode": "0x6080604052600080556000600460006101000a8154816fffffffffffffffffffffffffffffffff02191690836fffffffffffffffffffffffffffffffff16021790555034801561004e57600080fd5b50611fdf8061005e6000396000f3fe608060405234801561001057600080fd5b50600436106100cf5760003560e01c806398e159de1161008c578063b0ee0e9f11610066578063b0ee0e9f14610233578063d18e250914610268578063ec26a3db14610298578063f62dcddd146102ce576100cf565b806398e159de146101c4578063a73b54c3146101e0578063b0467deb146101fe576100cf565b806319507a48146100d45780631ea84379146100f057806335ff8ea01461010c578063409138051461013d578063925eaebf1461015b578063985d57cd14610192575b600080fd5b6100ee60048036038101906100e9919061170c565b6102ea565b005b61010a600480360381019061010591906117d1565b6103c3565b005b610126600480360381019061012191906118b2565b610558565b604051610134929190611967565b60405180910390f35b6101456106a8565b60405161015291906119ad565b60405180910390f35b610175600480360381019061017091906118b2565b6106e0565b6040516101899897969594939291906119c8565b60405180910390f35b6101ac60048036038101906101a791906118b2565b6109e0565b6040516101bb93929190611a69565b60405180910390f35b6101de60048036038101906101d99190611aa7565b610ac2565b005b6101e8610cae565b6040516101f591906119ad565b60405180910390f35b610218600480360381019061021391906118b2565b610cb8565b60405161022a96959493929190611be9565b60405180910390f35b61024d600480360381019061024891906118b2565b610f8e565b60405161025f96959493929190611c66565b60405180910390f35b610282600480360381019061027d91906118b2565b61114d565b60405161028f91906119ad565b60405180910390f35b6102b260048036038101906102ad91906118b2565b6111e1565b6040516102c59796959493929190611cd5565b60405180910390f35b6102e860048036038101906102e39190611d59565b611448565b005b600660008154809291906102fd90611df7565b91905055506040518060e0016040528060065481526020018781526020018681526020018581526020018481526020018381526020018281525060076000600654815260200190815260200160002060008201518160000155602082015181600101556040820151816002015560608201518160030190805190602001906103869291906114d9565b506080820151816004015560a0820151816005015560c08201518160060190805190602001906103b79291906114d9565b50905050505050505050565b6004600081819054906101000a90046fffffffffffffffffffffffffffffffff16809291906103f190611e5b565b91906101000a8154816fffffffffffffffffffffffffffffffff02191690836fffffffffffffffffffffffffffffffff160217905550506040518060e00160405280600460009054906101000a90046fffffffffffffffffffffffffffffffff166fffffffffffffffffffffffffffffffff1681526020018781526020018681526020018581526020018481526020018381526020018281525060056000600460009054906101000a90046fffffffffffffffffffffffffffffffff166fffffffffffffffffffffffffffffffff1681526020019081526020016000206000820151816000015560208201518160010190805190602001906104f49291906114d9565b5060408201518160020190805190602001906105119291906114d9565b50606082015181600301556080820151816004015560a08201518160050190805190602001906105429291906114d9565b5060c08201518160060155905050505050505050565b606080600260008481526020019081526020016000206006016002600085815260200190815260200160002060070181805461059390611ec2565b80601f01602080910402602001604051908101604052809291908181526020018280546105bf90611ec2565b801561060c5780601f106105e15761010080835404028352916020019161060c565b820191906000526020600020905b8154815290600101906020018083116105ef57829003601f168201915b5050505050915080805461061f90611ec2565b80601f016020809104026020016040519081016040528092919081815260200182805461064b90611ec2565b80156106985780601f1061066d57610100808354040283529160200191610698565b820191906000526020600020905b81548152906001019060200180831161067b57829003601f168201915b5050505050905091509150915091565b6000600460009054906101000a90046fffffffffffffffffffffffffffffffff166fffffffffffffffffffffffffffffffff16905090565b600381815481106106f057600080fd5b906000526020600020906008020160009150905080600001549080600101805461071990611ec2565b80601f016020809104026020016040519081016040528092919081815260200182805461074590611ec2565b80156107925780601f1061076757610100808354040283529160200191610792565b820191906000526020600020905b81548152906001019060200180831161077557829003601f168201915b5050505050908060020180546107a790611ec2565b80601f01602080910402602001604051908101604052809291908181526020018280546107d390611ec2565b80156108205780601f106107f557610100808354040283529160200191610820565b820191906000526020600020905b81548152906001019060200180831161080357829003601f168201915b50505050509080600301549080600401805461083b90611ec2565b80601f016020809104026020016040519081016040528092919081815260200182805461086790611ec2565b80156108b45780601f10610889576101008083540402835291602001916108b4565b820191906000526020600020905b81548152906001019060200180831161089757829003601f168201915b5050505050908060050154908060060180546108cf90611ec2565b80601f01602080910402602001604051908101604052809291908181526020018280546108fb90611ec2565b80156109485780601f1061091d57610100808354040283529160200191610948565b820191906000526020600020905b81548152906001019060200180831161092b57829003601f168201915b50505050509080600701805461095d90611ec2565b80601f016020809104026020016040519081016040528092919081815260200182805461098990611ec2565b80156109d65780601f106109ab576101008083540402835291602001916109d6565b820191906000526020600020905b8154815290600101906020018083116109b957829003601f168201915b5050505050905088565b60008060606001600085815260200190815260200160002060010154600160008681526020019081526020016000206002015460016000878152602001908152602001600020600301808054610a3590611ec2565b80601f0160208091040260200160405190810160405280929190818152602001828054610a6190611ec2565b8015610aae5780601f10610a8357610100808354040283529160200191610aae565b820191906000526020600020905b815481529060010190602001808311610a9157829003601f168201915b505050505090509250925092509193909250565b60006040518061010001604052808a815260200188815260200187815260200185815260200186815260200184815260200189815260200183815250905080600260008b8152602001908152602001600020600082015181600001556020820151816001019080519060200190610b3a9291906114d9565b506040820151816002019080519060200190610b579291906114d9565b50606082015181600301556080820151816004019080519060200190610b7e9291906114d9565b5060a0820151816005015560c0820151816006019080519060200190610ba59291906114d9565b5060e0820151816007019080519060200190610bc29291906114d9565b509050506003819080600181540180825580915050600190039060005260206000209060080201600090919091909150600082015181600001556020820151816001019080519060200190610c189291906114d9565b506040820151816002019080519060200190610c359291906114d9565b50606082015181600301556080820151816004019080519060200190610c5c9291906114d9565b5060a0820151816005015560c0820151816006019080519060200190610c839291906114d9565b5060e0820151816007019080519060200190610ca09291906114d9565b505050505050505050505050565b6000600654905090565b60608060006060600060606002600088815260200190815260200160002060010160026000898152602001908152602001600020600201600260008a815260200190815260200160002060030154600260008b8152602001908152602001600020600401600260008c815260200190815260200160002060050154600260008d8152602001908152602001600020600701858054610d5590611ec2565b80601f0160208091040260200160405190810160405280929190818152602001828054610d8190611ec2565b8015610dce5780601f10610da357610100808354040283529160200191610dce565b820191906000526020600020905b815481529060010190602001808311610db157829003601f168201915b50505050509550848054610de190611ec2565b80601f0160208091040260200160405190810160405280929190818152602001828054610e0d90611ec2565b8015610e5a5780601f10610e2f57610100808354040283529160200191610e5a565b820191906000526020600020905b815481529060010190602001808311610e3d57829003601f168201915b50505050509450828054610e6d90611ec2565b80601f0160208091040260200160405190810160405280929190818152602001828054610e9990611ec2565b8015610ee65780601f10610ebb57610100808354040283529160200191610ee6565b820191906000526020600020905b815481529060010190602001808311610ec957829003601f168201915b50505050509250808054610ef990611ec2565b80601f0160208091040260200160405190810160405280929190818152602001828054610f2590611ec2565b8015610f725780601f10610f4757610100808354040283529160200191610f72565b820191906000526020600020905b815481529060010190602001808311610f5557829003601f168201915b5050505050905095509550955095509550955091939550919395565b6000806060600080606060076000888152602001908152602001600020600101546007600089815260200190815260200160002060020154600760008a8152602001908152602001600020600301600760008b815260200190815260200160002060040154600760008c815260200190815260200160002060050154600760008d815260200190815260200160002060060183805461102c90611ec2565b80601f016020809104026020016040519081016040528092919081815260200182805461105890611ec2565b80156110a55780601f1061107a576101008083540402835291602001916110a5565b820191906000526020600020905b81548152906001019060200180831161108857829003601f168201915b505050505093508080546110b890611ec2565b80601f01602080910402602001604051908101604052809291908181526020018280546110e490611ec2565b80156111315780601f1061110657610100808354040283529160200191611131565b820191906000526020600020905b81548152906001019060200180831161111457829003601f168201915b5050505050905095509550955095509550955091939550919395565b600080600080600090505b6006548110156111c557846007600087815260200190815260200160002060010154036111b2576007600086815260200190815260200160002060050154836111a19190611ef3565b925081806111ae90611df7565b9250505b80806111bd90611df7565b915050611158565b50600081836111d49190611f78565b9050809350505050919050565b6000606080600080606060006005600089815260200190815260200160002060000154600560008a8152602001908152602001600020600101600560008b8152602001908152602001600020600201600560008c815260200190815260200160002060030154600560008d815260200190815260200160002060040154600560008e8152602001908152602001600020600501600560008f81526020019081526020016000206006015485805461129790611ec2565b80601f01602080910402602001604051908101604052809291908181526020018280546112c390611ec2565b80156113105780601f106112e557610100808354040283529160200191611310565b820191906000526020600020905b8154815290600101906020018083116112f357829003601f168201915b5050505050955084805461132390611ec2565b80601f016020809104026020016040519081016040528092919081815260200182805461134f90611ec2565b801561139c5780601f106113715761010080835404028352916020019161139c565b820191906000526020600020905b81548152906001019060200180831161137f57829003601f168201915b505050505094508180546113af90611ec2565b80601f01602080910402602001604051908101604052809291908181526020018280546113db90611ec2565b80156114285780601f106113fd57610100808354040283529160200191611428565b820191906000526020600020905b81548152906001019060200180831161140b57829003601f168201915b505050505091509650965096509650965096509650919395979092949650565b60008081548092919061145a90611df7565b91905055506040518060800160405280600054815260200184815260200183815260200182815250600160008054815260200190815260200160002060008201518160000155602082015181600101556040820151816002015560608201518160030190805190602001906114d09291906114d9565b50905050505050565b8280546114e590611ec2565b90600052602060002090601f016020900481019282611507576000855561154e565b82601f1061152057805160ff191683800117855561154e565b8280016001018555821561154e579182015b8281111561154d578251825591602001919060010190611532565b5b50905061155b919061155f565b5090565b5b80821115611578576000816000905550600101611560565b5090565b6000604051905090565b600080fd5b600080fd5b6000819050919050565b6115a381611590565b81146115ae57600080fd5b50565b6000813590506115c08161159a565b92915050565b600080fd5b600080fd5b6000601f19601f8301169050919050565b7f4e487b7100000000000000000000000000000000000000000000000000000000600052604160045260246000fd5b611619826115d0565b810181811067ffffffffffffffff82111715611638576116376115e1565b5b80604052505050565b600061164b61157c565b90506116578282611610565b919050565b600067ffffffffffffffff821115611677576116766115e1565b5b611680826115d0565b9050602081019050919050565b82818337600083830152505050565b60006116af6116aa8461165c565b611641565b9050828152602081018484840111156116cb576116ca6115cb565b5b6116d684828561168d565b509392505050565b600082601f8301126116f3576116f26115c6565b5b813561170384826020860161169c565b91505092915050565b60008060008060008060c0878903121561172957611728611586565b5b600061173789828a016115b1565b965050602061174889828a016115b1565b955050604087013567ffffffffffffffff8111156117695761176861158b565b5b61177589828a016116de565b945050606061178689828a016115b1565b935050608061179789828a016115b1565b92505060a087013567ffffffffffffffff8111156117b8576117b761158b565b5b6117c489828a016116de565b9150509295509295509295565b60008060008060008060c087890312156117ee576117ed611586565b5b600087013567ffffffffffffffff81111561180c5761180b61158b565b5b61181889828a016116de565b965050602087013567ffffffffffffffff8111156118395761183861158b565b5b61184589828a016116de565b955050604061185689828a016115b1565b945050606061186789828a016115b1565b935050608087013567ffffffffffffffff8111156118885761188761158b565b5b61189489828a016116de565b92505060a06118a589828a016115b1565b9150509295509295509295565b6000602082840312156118c8576118c7611586565b5b60006118d6848285016115b1565b91505092915050565b600081519050919050565b600082825260208201905092915050565b60005b838110156119195780820151818401526020810190506118fe565b83811115611928576000848401525b50505050565b6000611939826118df565b61194381856118ea565b93506119538185602086016118fb565b61195c816115d0565b840191505092915050565b60006040820190508181036000830152611981818561192e565b90508181036020830152611995818461192e565b90509392505050565b6119a781611590565b82525050565b60006020820190506119c2600083018461199e565b92915050565b6000610100820190506119de600083018b61199e565b81810360208301526119f0818a61192e565b90508181036040830152611a04818961192e565b9050611a13606083018861199e565b8181036080830152611a25818761192e565b9050611a3460a083018661199e565b81810360c0830152611a46818561192e565b905081810360e0830152611a5a818461192e565b90509998505050505050505050565b6000606082019050611a7e600083018661199e565b611a8b602083018561199e565b8181036040830152611a9d818461192e565b9050949350505050565b600080600080600080600080610100898b031215611ac857611ac7611586565b5b6000611ad68b828c016115b1565b985050602089013567ffffffffffffffff811115611af757611af661158b565b5b611b038b828c016116de565b975050604089013567ffffffffffffffff811115611b2457611b2361158b565b5b611b308b828c016116de565b965050606089013567ffffffffffffffff811115611b5157611b5061158b565b5b611b5d8b828c016116de565b955050608089013567ffffffffffffffff811115611b7e57611b7d61158b565b5b611b8a8b828c016116de565b94505060a0611b9b8b828c016115b1565b93505060c0611bac8b828c016115b1565b92505060e089013567ffffffffffffffff811115611bcd57611bcc61158b565b5b611bd98b828c016116de565b9150509295985092959890939650565b600060c0820190508181036000830152611c03818961192e565b90508181036020830152611c17818861192e565b9050611c26604083018761199e565b8181036060830152611c38818661192e565b9050611c47608083018561199e565b81810360a0830152611c59818461192e565b9050979650505050505050565b600060c082019050611c7b600083018961199e565b611c88602083018861199e565b8181036040830152611c9a818761192e565b9050611ca9606083018661199e565b611cb6608083018561199e565b81810360a0830152611cc8818461192e565b9050979650505050505050565b600060e082019050611cea600083018a61199e565b8181036020830152611cfc818961192e565b90508181036040830152611d10818861192e565b9050611d1f606083018761199e565b611d2c608083018661199e565b81810360a0830152611d3e818561192e565b9050611d4d60c083018461199e565b98975050505050505050565b600080600060608486031215611d7257611d71611586565b5b6000611d80868287016115b1565b9350506020611d91868287016115b1565b925050604084013567ffffffffffffffff811115611db257611db161158b565b5b611dbe868287016116de565b9150509250925092565b7f4e487b7100000000000000000000000000000000000000000000000000000000600052601160045260246000fd5b6000611e0282611590565b91507fffffffffffffffffffffffffffffffffffffffffffffffffffffffffffffffff8203611e3457611e33611dc8565b5b600182019050919050565b60006fffffffffffffffffffffffffffffffff82169050919050565b6000611e6682611e3f565b91506fffffffffffffffffffffffffffffffff8203611e8857611e87611dc8565b5b600182019050919050565b7f4e487b7100000000000000000000000000000000000000000000000000000000600052602260045260246000fd5b60006002820490506001821680611eda57607f821691505b602082108103611eed57611eec611e93565b5b50919050565b6000611efe82611590565b9150611f0983611590565b9250827fffffffffffffffffffffffffffffffffffffffffffffffffffffffffffffffff03821115611f3e57611f3d611dc8565b5b828201905092915050565b7f4e487b7100000000000000000000000000000000000000000000000000000000600052601260045260246000fd5b6000611f8382611590565b9150611f8e83611590565b925082611f9e57611f9d611f49565b5b82820490509291505056fea2646970667358221220c16aae2d8834d3397ba2fea1a8e1e4c0122796adecdd043f01db26651d2191b964736f6c634300080d0033",
  "immutableReferences": {},
  "source": "// SPDX-License-Identifier: AFL-3.0\npragma solidity ^0.8.0;\n\ncontract JobPortal {\n\n\tstruct user {\n\t    uint256 id;\n        string fname;\n        string lname;\n        uint256 number;\n        string uaddress;\n        uint256 anumber;\n        string pass;\n        string usertype;\n    }\n\n    struct jobpool {\n\t    uint256 jobid;\n        string jobname; \n        string jobloc; \n        uint256 jobduration;\n        uint256 jobwage;\n        string jobcontactpersion;\n        uint256 jobcontact;        \n    }\n\n    struct userjob_rating {\n        uint256 prkey;\n        uint256 jobid;\n        uint256 userid;\n        string jname;\n        uint256 cuserid;\n        uint rateing;\n        string comment;\n    }\n\n    struct applied {\n        uint256 pkey;\n        uint256 jobid;\n        uint256 userid;\n        string jname;\n    }\n\n    \n    uint256 applied_count = 0;\n    mapping(uint256 => applied) m_applied;\n\n    mapping(uint256 => user) m_user;\n    user[] public um;\n\n    uint128 jobpool_count = 0;\n    mapping(uint256 => jobpool) m_jobpool;\n\n    uint256 userjob_rating_count;\n    mapping(uint256 => userjob_rating) m_userjob_rating;\n\n    function newUser (uint256 _id, string memory _pass,string memory _fname,string memory _lname,string  memory _uaddress,uint256 _number,uint256 _anumber,string memory _usertype) public {\n        JobPortal.user memory usernew = user(_id,_fname,_lname,_number,_uaddress,_anumber,_pass,_usertype);\n        m_user[_id] = usernew;\n        um.push(usernew);\n    }\n\n    function jobApplied (uint256 _jobid,uint256 _userid,string memory _jname) public {\n        applied_count++;\n        m_applied[applied_count] = applied(applied_count,_jobid,_userid,_jname);\n    }\n\n    function newJobpool (string memory _jobname,string memory _jobloc,uint256 _jobduration,uint256 _jobwage,string memory _jobcontactpersion,uint256 _jobcontact) public {\n        jobpool_count++;\n        m_jobpool[jobpool_count] = jobpool(jobpool_count,_jobname,_jobloc,_jobduration, _jobwage,_jobcontactpersion,_jobcontact);\n    }\n\n    function newWorkmenRating (uint256 _jobid,uint256 _userid,string memory _jname,uint256 _cuserid,uint _rateing,string memory _comment) public {\n        userjob_rating_count++;\n        m_userjob_rating[userjob_rating_count] = userjob_rating(userjob_rating_count,_jobid,_userid,_jname,_cuserid,_rateing,_comment);\n    }\n\n      function jobPoolCount () view public returns (uint256) {\n        return jobpool_count;\n    }\n      function workmenRatingCount () view public returns (uint256) {\n        return userjob_rating_count;\n    } \n\n    function getRating(uint256 id) view public returns(uint256,uint256,string memory,uint256,uint,string memory) {\n         return(m_userjob_rating[id].jobid,m_userjob_rating[id].userid,m_userjob_rating[id].jname,m_userjob_rating[id].cuserid,m_userjob_rating[id].rateing,m_userjob_rating[id].comment);\n    }   \n    \n    function getJobs(uint256 id) view public returns(uint256,string memory,string memory,uint256,uint256,string memory,uint256) {\n        return (m_jobpool[id].jobid, m_jobpool[id].jobname, m_jobpool[id].jobloc, m_jobpool[id].jobduration, m_jobpool[id].jobwage, m_jobpool[id].jobcontactpersion, m_jobpool[id].jobcontact);\n    }\n    \n    function getUser(uint256 id) view public returns(string memory,string memory,uint256,string memory,uint256,string memory) {\n        return (m_user[id].fname,m_user[id].lname,m_user[id].number,m_user[id].uaddress,m_user[id].anumber,m_user[id].usertype);\n    }\n\n    function getusertype(uint256 id) view public returns(string memory,string memory) {\n     return(m_user[id].pass,m_user[id].usertype);     \n    }\n\n     function getapplied(uint256 pkey) view public returns(uint256,uint256,string memory) {\n     return(m_applied[pkey].jobid,m_applied[pkey].userid,m_applied[pkey].jname);     \n     }\n\n    function getRatings(uint256 _id) view public returns (uint256) {\n        uint256 workerrating;\n        uint256 dcount;\n        for(uint i = 0 ; i < userjob_rating_count; i++) {\n            if(m_userjob_rating[_id].jobid == _id) {\n                workerrating = workerrating + m_userjob_rating[_id].rateing;\n                dcount++;\n            }\n        }\n        uint rating = workerrating / dcount;\n        return rating;\n    }\n}\n",
  "sourcePath": "C:\\Users\\SACHIN\\Desktop\\JobPortalProject\\contracts\\JobPortal.sol",
  "compiler": {
    "name": "solc",
    "version": "0.8.13+commit.abaa5c0e.Emscripten.clang"
  },
  "schemaVersion": "3.4.15",
  "updatedAt": "2023-09-04T22:08:56.499Z",
  "networkType": "ethereum",
  "devdoc": {
    "kind": "dev",
    "methods": {},
    "version": 1
  },
  "userdoc": {
    "kind": "user",
    "methods": {},
    "version": 1
  }
}