{
  "contractName": "JobPortal",
  "abi": [
    {
      "inputs": [
        {
          "internalType": "uint256",
          "name": "",
          "type": "uint256"
        }
      ],
      "name": "um",
      "outputs": [
        {
          "internalType": "uint256",
          "name": "id",
          "type": "uint256"
        },
        {
          "internalType": "bytes32",
          "name": "fname",
          "type": "bytes32"
        },
        {
          "internalType": "bytes32",
          "name": "lname",
          "type": "bytes32"
        },
        {
          "internalType": "uint256",
          "name": "number",
          "type": "uint256"
        },
        {
          "internalType": "bytes32",
          "name": "uaddress",
          "type": "bytes32"
        },
        {
          "internalType": "uint256",
          "name": "anumber",
          "type": "uint256"
        },
        {
          "internalType": "bytes32",
          "name": "pass",
          "type": "bytes32"
        },
        {
          "internalType": "bytes32",
          "name": "usertype",
          "type": "bytes32"
        }
      ],
      "stateMutability": "view",
      "type": "function",
      "constant": true
    },
    {
      "inputs": [
        {
          "internalType": "uint256",
          "name": "_id",
          "type": "uint256"
        },
        {
          "internalType": "bytes32",
          "name": "_pass",
          "type": "bytes32"
        },
        {
          "internalType": "bytes32",
          "name": "_fname",
          "type": "bytes32"
        },
        {
          "internalType": "bytes32",
          "name": "_lname",
          "type": "bytes32"
        },
        {
          "internalType": "bytes32",
          "name": "_uaddress",
          "type": "bytes32"
        },
        {
          "internalType": "uint256",
          "name": "_number",
          "type": "uint256"
        },
        {
          "internalType": "uint256",
          "name": "_anumber",
          "type": "uint256"
        },
        {
          "internalType": "bytes32",
          "name": "_usertype",
          "type": "bytes32"
        }
      ],
      "name": "newUser",
      "outputs": [],
      "stateMutability": "nonpayable",
      "type": "function"
    },
    {
      "inputs": [
        {
          "internalType": "uint256",
          "name": "_jobid",
          "type": "uint256"
        },
        {
          "internalType": "uint256",
          "name": "_userid",
          "type": "uint256"
        },
        {
          "internalType": "bytes32",
          "name": "_jname",
          "type": "bytes32"
        }
      ],
      "name": "jobApplied",
      "outputs": [],
      "stateMutability": "nonpayable",
      "type": "function"
    },
    {
      "inputs": [
        {
          "internalType": "bytes32",
          "name": "_jobname",
          "type": "bytes32"
        },
        {
          "internalType": "bytes32",
          "name": "_jobloc",
          "type": "bytes32"
        },
        {
          "internalType": "uint256",
          "name": "_jobduration",
          "type": "uint256"
        },
        {
          "internalType": "uint256",
          "name": "_jobwage",
          "type": "uint256"
        },
        {
          "internalType": "bytes32",
          "name": "_jobcontactpersion",
          "type": "bytes32"
        },
        {
          "internalType": "uint256",
          "name": "_jobcontact",
          "type": "uint256"
        }
      ],
      "name": "newJobpool",
      "outputs": [],
      "stateMutability": "nonpayable",
      "type": "function"
    },
    {
      "inputs": [
        {
          "internalType": "uint256",
          "name": "_jobid",
          "type": "uint256"
        },
        {
          "internalType": "uint256",
          "name": "_userid",
          "type": "uint256"
        },
        {
          "internalType": "bytes32",
          "name": "_jname",
          "type": "bytes32"
        },
        {
          "internalType": "uint256",
          "name": "_cuserid",
          "type": "uint256"
        },
        {
          "internalType": "uint256",
          "name": "_rateing",
          "type": "uint256"
        },
        {
          "internalType": "bytes32",
          "name": "_comment",
          "type": "bytes32"
        }
      ],
      "name": "newWorkmenRating",
      "outputs": [],
      "stateMutability": "nonpayable",
      "type": "function"
    },
    {
      "inputs": [],
      "name": "jobPoolCount",
      "outputs": [
        {
          "internalType": "uint256",
          "name": "",
          "type": "uint256"
        }
      ],
      "stateMutability": "view",
      "type": "function",
      "constant": true
    },
    {
      "inputs": [],
      "name": "workmenRatingCount",
      "outputs": [
        {
          "internalType": "uint256",
          "name": "",
          "type": "uint256"
        }
      ],
      "stateMutability": "view",
      "type": "function",
      "constant": true
    },
    {
      "inputs": [
        {
          "internalType": "uint256",
          "name": "id",
          "type": "uint256"
        }
      ],
      "name": "getRating",
      "outputs": [
        {
          "internalType": "uint256",
          "name": "",
          "type": "uint256"
        },
        {
          "internalType": "uint256",
          "name": "",
          "type": "uint256"
        },
        {
          "internalType": "bytes32",
          "name": "",
          "type": "bytes32"
        },
        {
          "internalType": "uint256",
          "name": "",
          "type": "uint256"
        },
        {
          "internalType": "uint256",
          "name": "",
          "type": "uint256"
        },
        {
          "internalType": "bytes32",
          "name": "",
          "type": "bytes32"
        }
      ],
      "stateMutability": "view",
      "type": "function",
      "constant": true
    },
    {
      "inputs": [
        {
          "internalType": "uint256",
          "name": "id",
          "type": "uint256"
        }
      ],
      "name": "getJobs",
      "outputs": [
        {
          "internalType": "uint256",
          "name": "",
          "type": "uint256"
        },
        {
          "internalType": "bytes32",
          "name": "",
          "type": "bytes32"
        },
        {
          "internalType": "bytes32",
          "name": "",
          "type": "bytes32"
        },
        {
          "internalType": "uint256",
          "name": "",
          "type": "uint256"
        },
        {
          "internalType": "uint256",
          "name": "",
          "type": "uint256"
        },
        {
          "internalType": "bytes32",
          "name": "",
          "type": "bytes32"
        },
        {
          "internalType": "uint256",
          "name": "",
          "type": "uint256"
        }
      ],
      "stateMutability": "view",
      "type": "function",
      "constant": true
    },
    {
      "inputs": [
        {
          "internalType": "uint256",
          "name": "id",
          "type": "uint256"
        }
      ],
      "name": "getUser",
      "outputs": [
        {
          "internalType": "bytes32",
          "name": "",
          "type": "bytes32"
        },
        {
          "internalType": "bytes32",
          "name": "",
          "type": "bytes32"
        },
        {
          "internalType": "uint256",
          "name": "",
          "type": "uint256"
        },
        {
          "internalType": "bytes32",
          "name": "",
          "type": "bytes32"
        },
        {
          "internalType": "uint256",
          "name": "",
          "type": "uint256"
        },
        {
          "internalType": "bytes32",
          "name": "",
          "type": "bytes32"
        }
      ],
      "stateMutability": "view",
      "type": "function",
      "constant": true
    },
    {
      "inputs": [
        {
          "internalType": "uint256",
          "name": "id",
          "type": "uint256"
        }
      ],
      "name": "getusertype",
      "outputs": [
        {
          "internalType": "bytes32",
          "name": "",
          "type": "bytes32"
        },
        {
          "internalType": "bytes32",
          "name": "",
          "type": "bytes32"
        }
      ],
      "stateMutability": "view",
      "type": "function",
      "constant": true
    },
    {
      "inputs": [
        {
          "internalType": "uint256",
          "name": "pkey",
          "type": "uint256"
        }
      ],
      "name": "getapplied",
      "outputs": [
        {
          "internalType": "uint256",
          "name": "",
          "type": "uint256"
        },
        {
          "internalType": "uint256",
          "name": "",
          "type": "uint256"
        },
        {
          "internalType": "bytes32",
          "name": "",
          "type": "bytes32"
        }
      ],
      "stateMutability": "view",
      "type": "function",
      "constant": true
    },
    {
      "inputs": [
        {
          "internalType": "uint256",
          "name": "_id",
          "type": "uint256"
        }
      ],
      "name": "getRatings",
      "outputs": [
        {
          "internalType": "uint256",
          "name": "",
          "type": "uint256"
        }
      ],
      "stateMutability": "view",
      "type": "function",
      "constant": true
    }
  ],
  "bytecode": "0x6080604052600080556000600460006101000a8154816fffffffffffffffffffffffffffffffff02191690836fffffffffffffffffffffffffffffffff16021790555034801561004e57600080fd5b506111398061005e6000396000f3fe608060405234801561001057600080fd5b50600436106100cf5760003560e01c8063985d57cd1161008c578063b0ee0e9f11610066578063b0ee0e9f14610233578063d18e250914610268578063dca2277b14610298578063ec26a3db146102b4576100cf565b8063985d57cd146101ae578063a73b54c3146101e0578063b0467deb146101fe576100cf565b806306fa2499146100d457806314d65208146100f05780631bed00fd1461010c57806335ff8ea0146101285780634091380514610159578063925eaebf14610177575b600080fd5b6100ee60048036038101906100e99190610aea565b6102ea565b005b61010a60048036038101906101059190610b77565b61039d565b005b61012660048036038101906101219190610c04565b6104f9565b005b610142600480360381019061013d9190610cba565b610627565b604051610150929190610cf6565b60405180910390f35b610161610661565b60405161016e9190610d2e565b60405180910390f35b610191600480360381019061018c9190610cba565b610699565b6040516101a5989796959493929190610d49565b60405180910390f35b6101c860048036038101906101c39190610cba565b6106f1565b6040516101d793929190610dc7565b60405180910390f35b6101e8610748565b6040516101f59190610d2e565b60405180910390f35b61021860048036038101906102139190610cba565b610752565b60405161022a96959493929190610dfe565b60405180910390f35b61024d60048036038101906102489190610cba565b6107fa565b60405161025f96959493929190610e5f565b60405180910390f35b610282600480360381019061027d9190610cba565b6108a2565b60405161028f9190610d2e565b60405180910390f35b6102b260048036038101906102ad9190610ec0565b610936565b005b6102ce60048036038101906102c99190610cba565b6109b4565b6040516102e19796959493929190610f13565b60405180910390f35b600660008154809291906102fd90610fb1565b91905055506040518060e00160405280600654815260200187815260200186815260200185815260200184815260200183815260200182815250600760006006548152602001908152602001600020600082015181600001556020820151816001015560408201518160020155606082015181600301556080820151816004015560a0820151816005015560c08201518160060155905050505050505050565b6004600081819054906101000a90046fffffffffffffffffffffffffffffffff16809291906103cb90611015565b91906101000a8154816fffffffffffffffffffffffffffffffff02191690836fffffffffffffffffffffffffffffffff160217905550506040518060e00160405280600460009054906101000a90046fffffffffffffffffffffffffffffffff166fffffffffffffffffffffffffffffffff1681526020018781526020018681526020018581526020018481526020018381526020018281525060056000600460009054906101000a90046fffffffffffffffffffffffffffffffff166fffffffffffffffffffffffffffffffff168152602001908152602001600020600082015181600001556020820151816001015560408201518160020155606082015181600301556080820151816004015560a0820151816005015560c08201518160060155905050505050505050565b60006040518061010001604052808a815260200188815260200187815260200185815260200186815260200184815260200189815260200183815250905080600260008b8152602001908152602001600020600082015181600001556020820151816001015560408201518160020155606082015181600301556080820151816004015560a0820151816005015560c0820151816006015560e082015181600701559050506003819080600181540180825580915050600190039060005260206000209060080201600090919091909150600082015181600001556020820151816001015560408201518160020155606082015181600301556080820151816004015560a0820151816005015560c0820151816006015560e082015181600701555050505050505050505050565b6000806002600084815260200190815260200160002060060154600260008581526020019081526020016000206007015491509150915091565b6000600460009054906101000a90046fffffffffffffffffffffffffffffffff166fffffffffffffffffffffffffffffffff16905090565b600381815481106106a957600080fd5b90600052602060002090600802016000915090508060000154908060010154908060020154908060030154908060040154908060050154908060060154908060070154905088565b60008060006001600085815260200190815260200160002060010154600160008681526020019081526020016000206002015460016000878152602001908152602001600020600301549250925092509193909250565b6000600654905090565b60008060008060008060026000888152602001908152602001600020600101546002600089815260200190815260200160002060020154600260008a815260200190815260200160002060030154600260008b815260200190815260200160002060040154600260008c815260200190815260200160002060050154600260008d81526020019081526020016000206007015495509550955095509550955091939550919395565b60008060008060008060076000888152602001908152602001600020600101546007600089815260200190815260200160002060020154600760008a815260200190815260200160002060030154600760008b815260200190815260200160002060040154600760008c815260200190815260200160002060050154600760008d81526020019081526020016000206006015495509550955095509550955091939550919395565b600080600080600090505b60065481101561091a5784600760008781526020019081526020016000206001015403610907576007600086815260200190815260200160002060050154836108f6919061104d565b9250818061090390610fb1565b9250505b808061091290610fb1565b9150506108ad565b506000818361092991906110d2565b9050809350505050919050565b60008081548092919061094890610fb1565b91905055506040518060800160405280600054815260200184815260200183815260200182815250600160008054815260200190815260200160002060008201518160000155602082015181600101556040820151816002015560608201518160030155905050505050565b60008060008060008060006005600089815260200190815260200160002060000154600560008a815260200190815260200160002060010154600560008b815260200190815260200160002060020154600560008c815260200190815260200160002060030154600560008d815260200190815260200160002060040154600560008e815260200190815260200160002060050154600560008f8152602001908152602001600020600601549650965096509650965096509650919395979092949650565b600080fd5b6000819050919050565b610a9181610a7e565b8114610a9c57600080fd5b50565b600081359050610aae81610a88565b92915050565b6000819050919050565b610ac781610ab4565b8114610ad257600080fd5b50565b600081359050610ae481610abe565b92915050565b60008060008060008060c08789031215610b0757610b06610a79565b5b6000610b1589828a01610a9f565b9650506020610b2689828a01610a9f565b9550506040610b3789828a01610ad5565b9450506060610b4889828a01610a9f565b9350506080610b5989828a01610a9f565b92505060a0610b6a89828a01610ad5565b9150509295509295509295565b60008060008060008060c08789031215610b9457610b93610a79565b5b6000610ba289828a01610ad5565b9650506020610bb389828a01610ad5565b9550506040610bc489828a01610a9f565b9450506060610bd589828a01610a9f565b9350506080610be689828a01610ad5565b92505060a0610bf789828a01610a9f565b9150509295509295509295565b600080600080600080600080610100898b031215610c2557610c24610a79565b5b6000610c338b828c01610a9f565b9850506020610c448b828c01610ad5565b9750506040610c558b828c01610ad5565b9650506060610c668b828c01610ad5565b9550506080610c778b828c01610ad5565b94505060a0610c888b828c01610a9f565b93505060c0610c998b828c01610a9f565b92505060e0610caa8b828c01610ad5565b9150509295985092959890939650565b600060208284031215610cd057610ccf610a79565b5b6000610cde84828501610a9f565b91505092915050565b610cf081610ab4565b82525050565b6000604082019050610d0b6000830185610ce7565b610d186020830184610ce7565b9392505050565b610d2881610a7e565b82525050565b6000602082019050610d436000830184610d1f565b92915050565b600061010082019050610d5f600083018b610d1f565b610d6c602083018a610ce7565b610d796040830189610ce7565b610d866060830188610d1f565b610d936080830187610ce7565b610da060a0830186610d1f565b610dad60c0830185610ce7565b610dba60e0830184610ce7565b9998505050505050505050565b6000606082019050610ddc6000830186610d1f565b610de96020830185610d1f565b610df66040830184610ce7565b949350505050565b600060c082019050610e136000830189610ce7565b610e206020830188610ce7565b610e2d6040830187610d1f565b610e3a6060830186610ce7565b610e476080830185610d1f565b610e5460a0830184610ce7565b979650505050505050565b600060c082019050610e746000830189610d1f565b610e816020830188610d1f565b610e8e6040830187610ce7565b610e9b6060830186610d1f565b610ea86080830185610d1f565b610eb560a0830184610ce7565b979650505050505050565b600080600060608486031215610ed957610ed8610a79565b5b6000610ee786828701610a9f565b9350506020610ef886828701610a9f565b9250506040610f0986828701610ad5565b9150509250925092565b600060e082019050610f28600083018a610d1f565b610f356020830189610ce7565b610f426040830188610ce7565b610f4f6060830187610d1f565b610f5c6080830186610d1f565b610f6960a0830185610ce7565b610f7660c0830184610d1f565b98975050505050505050565b7f4e487b7100000000000000000000000000000000000000000000000000000000600052601160045260246000fd5b6000610fbc82610a7e565b91507fffffffffffffffffffffffffffffffffffffffffffffffffffffffffffffffff8203610fee57610fed610f82565b5b600182019050919050565b60006fffffffffffffffffffffffffffffffff82169050919050565b600061102082610ff9565b91506fffffffffffffffffffffffffffffffff820361104257611041610f82565b5b600182019050919050565b600061105882610a7e565b915061106383610a7e565b9250827fffffffffffffffffffffffffffffffffffffffffffffffffffffffffffffffff0382111561109857611097610f82565b5b828201905092915050565b7f4e487b7100000000000000000000000000000000000000000000000000000000600052601260045260246000fd5b60006110dd82610a7e565b91506110e883610a7e565b9250826110f8576110f76110a3565b5b82820490509291505056fea264697066735822122032e22fe786a39d6601588840bc328b11abc0f058d9387bd794c265a2d926f6ab64736f6c634300080d0033",
  "immutableReferences": {},
  "source": "// SPDX-License-Identifier: MIT\npragma solidity >=0.4.22 <0.9.0;\n\ncontract JobPortal {\n\n\tstruct user {\n\t    uint256 id;\n        bytes32 fname;\n        bytes32 lname;\n        uint256 number;\n        bytes32 uaddress;\n        uint256 anumber;\n        bytes32 pass;\n        bytes32 usertype;\n    }\n\n    struct jobpool {\n\t    uint256 jobid;\n        bytes32 jobname; \n        bytes32 jobloc; \n        uint256 jobduration;\n        uint256 jobwage;\n        bytes32 jobcontactpersion;\n        uint256 jobcontact;        \n    }\n\n    struct userjob_rating {\n        uint256 prkey;\n        uint256 jobid;\n        uint256 userid;\n        bytes32 jname;\n        uint256 cuserid;\n        uint rateing;\n        bytes32 comment;\n    }\n\n    struct applied {\n        uint256 pkey;\n        uint256 jobid;\n        uint256 userid;\n        bytes32 jname;\n    }\n\n    \n    uint256 applied_count = 0;\n    mapping(uint256 => applied) m_applied;\n\n    mapping(uint256 => user) m_user;\n    user[] public um;\n\n    uint128 jobpool_count = 0;\n    mapping(uint256 => jobpool) m_jobpool;\n\n    uint256 userjob_rating_count;\n    mapping(uint256 => userjob_rating) m_userjob_rating;\n\n    function newUser (uint256 _id, bytes32 _pass,bytes32 _fname,bytes32 _lname,bytes32 _uaddress,uint256 _number,uint256 _anumber,bytes32 _usertype) public {\n        JobPortal.user memory usernew = user(_id,_fname,_lname,_number,_uaddress,_anumber,_pass,_usertype);\n        m_user[_id] = usernew;\n        um.push(usernew);\n    }\n\n    function jobApplied (uint256 _jobid,uint256 _userid,bytes32 _jname) public {\n        applied_count++;\n        m_applied[applied_count] = applied(applied_count,_jobid,_userid,_jname);\n    }\n\n    function newJobpool (bytes32 _jobname,bytes32 _jobloc,uint256 _jobduration,uint256 _jobwage,bytes32 _jobcontactpersion,uint256 _jobcontact) public {\n        jobpool_count++;\n        m_jobpool[jobpool_count] = jobpool(jobpool_count,_jobname,_jobloc,_jobduration, _jobwage,_jobcontactpersion,_jobcontact);\n    }\n\n    function newWorkmenRating (uint256 _jobid,uint256 _userid,bytes32 _jname,uint256 _cuserid,uint _rateing,bytes32 _comment) public {\n        userjob_rating_count++;\n        m_userjob_rating[userjob_rating_count] = userjob_rating(userjob_rating_count,_jobid,_userid,_jname,_cuserid,_rateing,_comment);\n    }\n\n      function jobPoolCount () view public returns (uint256) {\n        return jobpool_count;\n    }\n      function workmenRatingCount () view public returns (uint256) {\n        return userjob_rating_count;\n    } \n\n    function getRating(uint256 id) view public returns(uint256,uint256,bytes32,uint256,uint,bytes32) {\n         return(m_userjob_rating[id].jobid,m_userjob_rating[id].userid,m_userjob_rating[id].jname,m_userjob_rating[id].cuserid,m_userjob_rating[id].rateing,m_userjob_rating[id].comment);\n    }   \n    \n    function getJobs(uint256 id) view public returns(uint256,bytes32,bytes32,uint256,uint256,bytes32,uint256) {\n        return (m_jobpool[id].jobid, m_jobpool[id].jobname, m_jobpool[id].jobloc, m_jobpool[id].jobduration, m_jobpool[id].jobwage, m_jobpool[id].jobcontactpersion, m_jobpool[id].jobcontact);\n    }\n    \n    function getUser(uint256 id) view public returns(bytes32,bytes32,uint256,bytes32,uint256,bytes32) {\n        return (m_user[id].fname,m_user[id].lname,m_user[id].number,m_user[id].uaddress,m_user[id].anumber,m_user[id].usertype);\n    }\n\n    function getusertype(uint256 id) view public returns(bytes32,bytes32) {\n     return(m_user[id].pass,m_user[id].usertype);     \n    }\n\n     function getapplied(uint256 pkey) view public returns(uint256,uint256,bytes32) {\n     return(m_applied[pkey].jobid,m_applied[pkey].userid,m_applied[pkey].jname);     \n     }\n\n    function getRatings(uint256 _id) view public returns (uint256) {\n        uint256 workerrating;\n        uint256 dcount;\n        for(uint i = 0 ; i < userjob_rating_count; i++) {\n            if(m_userjob_rating[_id].jobid == _id) {\n                workerrating = workerrating + m_userjob_rating[_id].rateing;\n                dcount++;\n            }\n        }\n        uint rating = workerrating / dcount;\n        return rating;\n    }\n}\n",
  "sourcePath": "C:\\Users\\SACHIN\\Desktop\\JobPortalProject\\contracts\\JobPortal.sol",
  "compiler": {
    "name": "solc",
    "version": "0.8.13+commit.abaa5c0e.Emscripten.clang"
  },
  "schemaVersion": "3.4.15",
  "updatedAt": "2023-09-04T21:24:26.551Z",
  "networkType": "ethereum",
  "devdoc": {
    "kind": "dev",
    "methods": {},
    "version": 1
  },
  "userdoc": {
    "kind": "user",
    "methods": {},
    "version": 1
  }
}